:020000040800F2
:100000000080012095080008E5070008EB070008BC
:10001000F1070008F7070008FD07000800000000CE
:1000200000000000000000000000000003080008BD
:1000300011080008000000001F0800082D08000833
:10004000E5080008E5080008E5080008E5080008DC
:10005000E5080008E5080008390800084708000816
:100060005508000863080008E5080008E5080008CE
:10007000E5080008E5080008E5080008E5080008AC
:10008000E5080008E5080008E50800080000000091
:10009000000000000000000000000000E50800086B
:1000A000E5080008E5080008E5080008E50800087C
:1000B000E5080008E5080008E5080008E50800086C
:1000C000E5080008E5080008E5080008E50800085C
:1000D000E5080008E5080008E50800080000000041
:1000E000E5080008E5080008E50800080000000031
:1000F000000000000000000000000000E50800080B
:1001000000000000E5080008E5080008E508000810
:1001100000000000000000000000000000000000DF
:10012000E5080008E5080008E5080008E5080008FB
:10013000E5080008000000000000000000000000CA
:10014000000000000000000000000000E5080008BA
:10015000E5080008E5080008E5080008E5080008CB
:10016000E5080008E50800080000000000000000A5
:10017000000000000000000000000000000000007F
:1001800000000000E508000800000000000000007A
:04019000E508000876
:1001940010B5054C237833B9044B13B10448AFF3BD
:1001A40000800123237010BD240000200000000003
:1001B4004C1C000808B5034B1BB103490348AFF3BB
:1001C400008008BD00000000280000204C1C00082E
:1001D400034613F8012B002AFBD1181A0138704783
:1001E40053B94AB9002908BF00281CBF4FF0FF319A
:1001F4004FF0FF3000F070B9ADF1080C6DE904CE9A
:1002040000F006F8DDF804E0DDE9022304B07047ED
:100214002DE9F047089E0D4604460F46002B4AD1AF
:100224008A42944665D9B2FA82F343B102FA03FCD6
:10023400C3F120029F4020FA02F217439C404FEA88
:100244001C4E1FFA8CF5B7FBFEF1220C0EFB117746
:1002540042EA074201FB05F090420AD91CEB020274
:1002640001F1FF3780F01C81904240F2198102397C
:100274006244121AA4B2B2FBFEF00EFB102244EA4E
:10028400024400FB05F5A5420AD91CEB040400F165
:10029400FF3280F00781A54240F2048164440238B1
:1002A40040EA0140641B00211EB1DC400023C6E982
:1002B4000043BDE8F0878B4208D9002E00F0ED80A2
:1002C4000021C6E900050846BDE8F087B3FA83F1CA
:1002D400002949D1AB4202D3824200F2F880841A49
:1002E40065EB030201201746002EE2D0C6E9004761
:1002F400DFE702B9FFDEB2FA82F3002B40F0908010
:100304008A1A4FEA1C471FFA8CFE0121B2FBF7F54B
:1003140007FB1520220C42EA00420EFB05F0904236
:1003240008D91CEB020205F1FF3802D2904200F218
:10033400CB804546121AA4B2B2FBF7F007FB102299
:1003440044EA02440EFB00FEA64508D91CEB040453
:1003540000F1FF3202D2A64500F2BB801046A4EBA6
:100364000E0440EA05409FE7C1F120078B4022FAC2
:1003740007FC4CEA030C05FA01F420FA07F3FD40EC
:100384004FEA1C492343B5FBF9F81FFA8CFE09FB1D
:1003940018551C0C44EA054408FB0EF5A54202FA64
:1003A40001F200FA01F00BD91CEB040408F1FF3A46
:1003B40080F08880A54240F28580A8F10208644458
:1003C400641B9DB2B4FBF9F309FB134445EA0444EE
:1003D40003FB0EFEA64508D91CEB040403F1FF350C
:1003E4006CD2A6456AD9023B644443EA0843A3FBA2
:1003F4000295A4EB0E04AC42C846AE4656D353D085
:1004040056B1B0EB080264EB0E0404FA07F7CA40D5
:10041400CC401743C6E9007418460021BDE8F087B4
:10042400C3F1200102FA03FC20FA01F225FA01F1DA
:100434009D402A434FEA1C471FFA8CFEB1FBF7F09C
:1004440007FB1015110C41EA054100FB0EF58D4226
:1004540004FA03F408D91CEB010100F1FF382FD290
:100464008D422DD902386144491B92B2B1FBF7F594
:1004740007FB151142EA014205FB0EF1914208D92E
:100484001CEB020205F1FF3816D2914214D9023D49
:100494006244521A45EA004138E73146304608E7DB
:1004A4003946E6E61046FBE64845A9D2B9EB020810
:1004B40065EB0C0E013BA3E74546EAE72B4694E7C0
:1004C4004046D1E7D0467BE7023D624432E7084626
:1004D4000AE76444023842E7704700BFB0B58AB007
:1004E40004AF1C4C3846802302931B4B01934023DA
:1004F4000093194B194A1A4901F0C2F925463C46A2
:100504000FCC0FC594E8030085E8030000F0EAF976
:1005140000F02CF800F094F80E4801F0D4F9012111
:100524000C4801F004FA02210A4801F000FA002202
:100534000021084801F02CFB0A49064801F009FB98
:1005440001220021034801F023FB0749014801F07F
:1005540000FBFEE7400000200008024000000020ED
:1005640008000020641C00087C1C000880B594B0BE
:1005740000AF07F1200330220021184601F038FBB8
:1005840007F10C0300221A605A609A60DA601A615B
:100594000023BB60284B1B6C274A43F08053136431
:1005A400254B1B6C03F08053BB60BB6800237B604E
:1005B400224B1B6823F44043204A43F40043136056
:1005C4001E4B1B6803F440437B607B6801233B6242
:1005D4004FF4A0237B620223BB634FF48003FB63CD
:1005E40004233B6454237B640223BB640723FB641E
:1005F40007F12003184600F0DFFC0346002B01D06E
:1006040000F0C0F80F23FB6002233B6100237B61F1
:100614004FF48053BB610023FB6107F10C030221FB
:10062400184600F041FF0346002B01D000F0AAF861
:1006340000BF5037BD4680BD003802400070004006
:1006440080B58AB000AF07F1140300221A605A6023
:100654009A60DA601A6100233B61474B1B6B464A80
:1006640043F080031363444B1B6B03F080033B6133
:100674003B690023FB60404B1B6B3F4A43F0040380
:1006840013633D4B1B6B03F00403FB60FB68002307
:10069400BB60394B1B6B384A43F002031363364B80
:1006A4001B6B03F00203BB60BB6800237B60324B0F
:1006B4001B6B314A43F0010313632F4B1B6B03F095
:1006C40001037B607B680022CF212C4800F036FCBC
:1006D40000224FF470412A4800F030FCCF237B61A4
:1006E4000123BB610023FB6100233B6207F1140378
:1006F4001946224800F09EFA0F237B614FF48813B9
:10070400BB610023FB6107F1140319461C4800F088
:1007140091FA4FF470437B610123BB610023FB61B9
:1007240000233B6207F114031946154800F082FACE
:1007340000220121062000F046FA062000F05FFAAC
:1007440000220221072000F03EFA072000F057FAA9
:1007540000220321082000F036FA082000F04FFAA6
:1007640000220421092000F02EFA092000F047FAA3
:1007740000BF2837BD4680BD003802400008024053
:100784000004024080B400AF72B600BFFEE7000070
:1007940080B483B000AF00237B60104B5B6C0F4AC6
:1007A40043F4804353640D4B5B6C03F480437B60E0
:1007B4007B6800233B60094B1B6C084A43F0805361
:1007C4001364064B1B6C03F080533B603B6800BF13
:1007D4000C37BD465DF8047B704700BF003802400B
:1007E40080B400AFFEE780B400AFFEE780B400AF92
:1007F400FEE780B400AFFEE780B400AFFEE780B44C
:1008040000AF00BFBD465DF8047B704780B400AF05
:1008140000BFBD465DF8047B704780B400AF00BFE5
:10082400BD465DF8047B704780B500AF00F0ACF8BE
:1008340000BF80BD80B500AF012000F099FB00BF70
:1008440080BD80B500AF022000F092FB00BF80BDE8
:1008540080B500AF042000F08BFB00BF80BD80B5E5
:1008640000AF082000F084FB00BF80BD80B400AF5F
:10087400064BD3F88830054A43F47003C2F8883035
:1008840000BFBD465DF8047B704700BF00ED00E08B
:10089400DFF834D00D480E490E4A002302E0D45844
:1008A400C4500433C4188C42F9D30B4A0B4C0023B4
:1008B40001E013600432A242FBD3FFF7D7FF01F03B
:1008C4009FF9FFF70BFE7047008001200000002015
:1008D40024000020AC1C0008240000205C00002040
:1008E400FEE7000080B500AF0E4B1B680D4A43F4D1
:1008F400007313600B4B1B680A4A43F48063136054
:10090400084B1B68074A43F480731360032000F00C
:100914004FF9002000F008F8FFF73AFF00231846CB
:1009240080BD00BF003C024080B582B000AF78605B
:10093400124B1A68124B1B7819464FF47A73B3FBA7
:10094400F1F3B2FBF3F3184600F067F90346002B0A
:1009540001D001230EE07B680F2B0AD800227968AE
:100964004FF0FF3000F02FF9064A7B681360002334
:1009740000E0012318460837BD4680BD180000205A
:10098400200000201C00002080B400AF064B1B7820
:100994001A46064B1B681344044A136000BFBD4645
:1009A4005DF8047B704700BF200000205800002041
:1009B40080B400AF034B1B681846BD465DF8047B4A
:1009C400704700BF5800002080B584B000AF786045
:1009D400FFF7EEFFB8607B68FB60FB68B3F1FF3F95
:1009E40005D00A4B1B781A46FB681344FB6000BF12
:1009F400FFF7DEFF0246BB68D31AFA689A42F7D8BB
:100A040000BF00BF1037BD4680BD00BF20000020DE
:100A140080B485B000AF78607B6803F00703FB60A7
:100A24000C4BDB68BB60BA684FF6FF031340BB6036
:100A3400FB681A02BB68134343F0BF6343F40033FB
:100A4400BB60044ABB68D36000BF1437BD465DF881
:100A5400047B704700ED00E080B400AF044BDB681A
:100A64001B0A03F007031846BD465DF8047B704774
:100A740000ED00E080B483B000AF0346FB7197F94A
:100A84000730002B0BDBFB7903F01F02074997F9B2
:100A940007305B09012000FA02F241F8232000BF6D
:100AA4000C37BD465DF8047B704700BF00E100E0F1
:100AB40080B483B000AF03463960FB7197F9073007
:100AC400002B0ADB3B68DAB20C4997F907301201B4
:100AD400D2B20B4483F800230AE03B68DAB2084937
:100AE400FB7903F00F03043B1201D2B20B441A76D4
:100AF40000BF0C37BD465DF8047B704700E100E0A1
:100B040000ED00E080B489B000AFF860B9607A60AD
:100B1400FB6803F00703FB61FB69C3F10703042BC4
:100B240028BF0423BB61FB690433062B02D9FB698C
:100B3400033B00E000237B614FF0FF32BB6902FA04
:100B440003F3DA43BB681A407B699A404FF0FF31E4
:100B54007B6901FA03F3D9437B680B4013431846BE
:100B64002437BD465DF8047B7047000080B582B031
:100B740000AF78607B68013BB3F1807F01D3012330
:100B84000FE00A4A7B68013B53600F214FF0FF30AE
:100B9400FFF78EFF054B00229A60044B07221A6070
:100BA400002318460837BD4680BD00BF10E000E0B2
:100BB40080B582B000AF78607868FFF729FF00BF86
:100BC4000837BD4680BD80B586B000AF0346B96026
:100BD4007A60FB7300237B61FFF73EFF78617A68DC
:100BE400B9687869FFF78EFF024697F90F3011460E
:100BF4001846FFF75DFF00BF1837BD4680BD80B5BE
:100C040082B000AF0346FB7197F907301846FFF72F
:100C140031FF00BF0837BD4680BD80B582B000AF4C
:100C240078607868FFF7A2FF034618460837BD4688
:100C340080BD000080B489B000AF786039600023C3
:100C44007B6100233B610023BB610023FB6159E10D
:100C54000122FB6902FA03F37B613B681B687A6932
:100C640013403B613A697B699A4240F048813B6892
:100C74005B6803F00303012B05D03B685B6803F05A
:100C84000303022B30D17B689B68BB61FB695B006B
:100C9400032202FA03F3DB43BA691340BB613B68E6
:100CA400DA68FB695B0002FA03F3BA691343BB61B8
:100CB4007B68BA699A607B685B68BB610122FB69E7
:100CC40002FA03F3DB43BA691340BB613B685B6818
:100CD4001B0903F00102FB6902FA03F3BA69134327
:100CE400BB617B68BA695A603B685B6803F00303C5
:100CF400032B17D07B68DB68BB61FB695B000322B5
:100D040002FA03F3DB43BA691340BB613B689A6898
:100D1400FB695B0002FA03F3BA691343BB617B68A6
:100D2400BA69DA603B685B6803F00303022B23D1E2
:100D3400FB69DA087B68083253F82230BB61FB692F
:100D440003F007039B000F2202FA03F3DB43BA69A3
:100D54001340BB613B681A69FB6903F007039B00FE
:100D640002FA03F3BA691343BB61FB69DA087B68CF
:100D74000832B96943F822107B681B68BB61FB69C0
:100D84005B00032202FA03F3DB43BA691340BB613D
:100D94003B685B6803F00302FB695B0002FA03F340
:100DA400BA691343BB617B68BA691A603B685B68C4
:100DB40003F44033002B00F0A2800023FB60574B68
:100DC4005B6C564A43F480435364544B5B6C03F4AA
:100DD4008043FB60FB68524AFB699B08023352F86C
:100DE4002330BB61FB6903F003039B000F2202FA6B
:100DF40003F3DB43BA691340BB617B68494A9342FE
:100E040019D07B68484A934213D07B68474A93427F
:100E14000DD07B68464A934207D07B68454A93428B
:100E240001D1042308E0072306E0032304E002239E
:100E340002E0012300E00023FA6902F003029200B9
:100E44009340BA691343BB613549FB699B0802337C
:100E5400BA6941F82320384B9B68BB613B69DB438B
:100E6400BA691340BB613B685B6803F48013002BD1
:100E740003D0BA693B691343BB612F4ABB699360D2
:100E84002D4BDB68BB613B69DB43BA691340BB6133
:100E94003B685B6803F40013002B03D0BA693B6919
:100EA4001343BB61244ABB69D360234B5B68BB61BA
:100EB4003B69DB43BA691340BB613B685B6803F47D
:100EC4000033002B03D0BA693B691343BB611A4A50
:100ED400BB695360184B1B68BB613B69DB43BA6950
:100EE4001340BB613B685B6803F48033002B03D081
:100EF400BA693B691343BB610F4ABB691360FB6961
:100F04000133FB61FB690F2B7FF6A2AE00BF00BF6C
:100F14002437BD465DF8047B704700BF00380240AB
:100F24000038014000000240000402400008024072
:100F3400000C024000100240003C014080B483B029
:100F440000AF78600B467B8013467B707B78002B68
:100F540003D07A887B689A6103E07B881A047B68F3
:100F64009A6100BF0C37BD465DF8047B70470000F2
:100F740080B582B000AF0346FB80084B5A69FB88FA
:100F84001340002B06D0054AFB885361FB881846A2
:100F940000F006F800BF0837BD4680BD003C0140A4
:100FA40080B483B000AF0346FB8000BF0C37BD465E
:100FB4005DF8047B7047000080B586B000AF7860B0
:100FC4007B68002B01D1012367E27B681B6803F077
:100FD4000103002B75D0884B9B6803F00C03042B92
:100FE4000CD0854B9B6803F00C03082B12D1824B69
:100FF4005B6803F48003B3F5800F0BD17E4B1B6851
:1010040003F40033002B5BD07B685B68002B57D163
:10101400012342E27B685B68B3F5803F06D1764BDF
:101024001B68754A43F4803313601DE07B685B687A
:10103400B3F5A02F0CD1704B1B686F4A43F4802387
:1010440013606D4B1B686C4A43F4803313600BE0F0
:10105400694B1B68684A23F480331360664B1B6832
:10106400654A23F4802313607B685B68002B13D0EC
:10107400FFF79EFC386108E0FFF79AFC02463B69E3
:10108400D31A642B01D9032307E25B4B1B6803F4D7
:101094000033002BF0D014E0FFF78AFC386108E03D
:1010A400FFF786FC02463B69D31A642B01D903235C
:1010B400F3E1514B1B6803F40033002BF0D100E043
:1010C40000BF7B681B6803F00203002B63D04A4B0C
:1010D4009B6803F00C03002B0BD0474B9B6803F079
:1010E4000C03082B1CD1444B5B6803F48003002BD6
:1010F40016D1414B1B6803F00203002B05D07B681B
:10110400DB68012B01D00123C7E13B4B1B6823F0B3
:10111400F8027B681B69DB00374913430B603AE034
:101124007B68DB68002B20D0344B01221A60FFF768
:101134003FFC386108E0FFF73BFC02463B69D31AE9
:10114400022B01D90323A8E12B4B1B6803F00203F4
:10115400002BF0D0284B1B6823F0F8027B681B6936
:10116400DB00254913430B6015E0244B00221A6071
:10117400FFF71EFC386108E0FFF71AFC02463B69E2
:10118400D31A022B01D9032387E11B4B1B6803F0FD
:101194000203002BF0D17B681B6803F00803002BCB
:1011A40036D07B685B69002B16D0154B01221A6080
:1011B400FFF7FEFB386108E0FFF7FAFB02463B69E4
:1011C400D31A022B01D9032367E10B4B5B6F03F0A6
:1011D4000203002BF0D01BE0094B00221A60FFF73A
:1011E400E7FB38610EE0FFF7E3FB02463B69D31AE5
:1011F400022B07D9032350E1003802400000474284
:10120400800E4742884B5B6F03F00203002BEAD148
:101214007B681B6803F00403002B00F09780002315
:10122400FB75814B1B6C03F08053002B0FD1002303
:10123400BB607D4B1B6C7C4A43F0805313647A4B38
:101244001B6C03F08053BB60BB680123FB75774BB9
:101254001B6803F48073002B18D1744B1B68734A0A
:1012640043F480731360FFF7A3FB386108E0FFF7D2
:101274009FFB02463B69D31A022B01D903230CE1DD
:101284006A4B1B6803F48073002BF0D07B689B6867
:10129400012B06D1644B1B6F634A43F001031367B0
:1012A4001CE07B689B68052B0CD15F4B1B6F5E4A6F
:1012B40043F0040313675C4B1B6F5B4A43F0010369
:1012C40013670BE0584B1B6F574A23F00103136756
:1012D400554B1B6F544A23F0040313677B689B68C8
:1012E400002B15D0FFF764FB38610AE0FFF760FBC1
:1012F40002463B69D31A41F28832934201D903234F
:10130400CBE0494B1B6F03F00203002BEED014E03B
:10131400FFF74EFB38610AE0FFF74AFB02463B69E0
:10132400D31A41F28832934201D90323B5E03E4BEC
:101334001B6F03F00203002BEED1FB7D012B05D1C3
:10134400394B1B6C384A23F0805313647B689B69C8
:10135400002B00F0A180344B9B6803F00C03082B96
:101364005CD07B689B69022B41D1314B00221A600F
:10137400FFF71EFB386108E0FFF71AFB02463B69E2
:10138400D31A022B01D9032387E0274B1B6803F0F0
:101394000073002BF0D17B68DA697B681B6A1A43FF
:1013A4007B685B6A9B011A437B689B6A5B08013B11
:1013B4001B041A437B68DB6A1B061B4913434B60FF
:1013C4001B4B01221A60FFF7F3FA386108E0FFF7BC
:1013D400EFFA02463B69D31A022B01D903235CE0DE
:1013E400114B1B6803F00073002BF0D054E0104B3A
:1013F40000221A60FFF7DCFA386108E0FFF7D8FA38
:1014040002463B69D31A022B01D9032345E0064B5C
:101414001B6803F00073002BF0D13DE07B689B69EF
:10142400012B07D1012338E000380240007000404E
:10143400600047421B4B5B68FB607B689B69012B28
:1014440028D0FB6803F480027B68DB699A4221D1CF
:10145400FB6803F03F027B681B6A9A421AD1FA6860
:1014640047F6C07313407A68526A9201934211D1CD
:10147400FB6803F440327B689B6A5B08013B1B04F6
:101484009A4207D1FB6803F070627B68DB6A1B0633
:101494009A4201D0012300E0002318461837BD46C4
:1014A40080BD00BF0038024080B584B000AF7860D2
:1014B40039607B68002B01D10123CCE0684B1B68A9
:1014C40003F007033A689A420CD9654B3A68D2B2E2
:1014D4001A70634B1B6803F007033A689A4201D001
:1014E4000123B8E07B681B6803F00203002B20D0C3
:1014F4007B681B6803F00403002B05D0594B9B68E1
:10150400584A43F4E05393607B681B6803F0080374
:10151400002B05D0534B9B68524A43F460439360BD
:10152400504B9B6823F0F0027B689B684D49134342
:101534008B607B681B6803F00103002B44D07B683D
:101544005B68012B07D1474B1B6803F40033002B66
:1015540019D101237FE07B685B68022B03D07B6891
:101564005B68032B07D13F4B1B6803F00073002B10
:1015740009D101236FE03B4B1B6803F00203002BEE
:1015840001D1012367E0374B9B6823F003027B689A
:101594005B68344913438B60FFF70AFAF8600AE08A
:1015A400FFF706FA0246FB68D31A41F288329342E7
:1015B40001D903234FE02B4B9B6803F00C027B689B
:1015C4005B689B009A42EBD1254B1B6803F0070331
:1015D4003A689A420CD2224B3A68D2B21A70204B23
:1015E4001B6803F007033A689A4201D0012332E0F2
:1015F4007B681B6803F00403002B08D0194B9B681D
:1016040023F4E0527B68DB68164913438B607B68E4
:101614001B6803F00803002B09D0124B9B6823F4CA
:1016240060427B681B69DB000E4913438B6000F04A
:1016340021F802460B4B9B681B0903F00F030A4970
:10164400CB5C22FA03F3094A1360094B1B68184662
:10165400FFF76AF9002318461037BD4680BD00BF66
:10166400003C0240003802408C1C00081800002096
:101674001C0000202DE9B04F94B000AF00237B6420
:101684000023FB6400233B640023BB64794B9B6809
:1016940003F00C03082B0DD0082B00F2E180002B83
:1016A40002D0042B03D0DBE0734BBB64DBE0734B51
:1016B400BB64D8E06F4B5B6803F03F037B646D4B06
:1016C4005B6803F48003002B63D06A4B5B689B095F
:1016D4000022BB63FA63BB6BC3F308033B630023C1
:1016E4007B63D7E90C4522462B464FF000004FF0B0
:1016F4000001590141EAD261500102460B462146DC
:10170400511A3961294663EB01037B614FF00002F2
:101714004FF00003D7E904AB59468B01514643EA25
:10172400916351468A015146B2EB0108594663EB75
:1017340001094FF000024FF000034FEAC90343EAE6
:1017440058734FEAC80290469946234618EB0303A0
:10175400BB602B4649EB0303FB604FF000024FF0E4
:101764000003D7E9024529464B02214643EAD153F7
:1017740021464A02104619467B6C0022BB62FA627B
:10178400D7E90A23FEF72CFD02460B461346FB64F9
:1017940058E0384B5B689B09002218461146C0F399
:1017A40008033B6200237B62D7E9088942464B4623
:1017B4004FF000004FF00001590141EAD26150019D
:1017C40002460B464146B2EB010A494663EB010B64
:1017D4004FF000024FF000034FEA8B1343EA9A6381
:1017E4004FEA8A12B2EB0A0463EB0B054FF00002D6
:1017F4004FF00003EB0043EA5473E20014461D4625
:101804004346E3183B604B4645EB03037B604FF0D4
:1018140000024FF00003D7E9004529468B02214618
:1018240043EA915321468A02104619467B6C0022F2
:10183400BB61FA61D7E90623FEF7D2FC02460B46E8
:101844001346FB640B4B5B681B0C03F0030301336F
:101854005B003B64FA6C3B6CB2FBF3F3BB6402E0E9
:10186400054BBB6400BFBB6C18465037BD46BDE892
:10187400B08F00BF003802400024F40000127A0048
:10188400B0B48BB000AFF860B9607A603B60BB68FD
:101894003B617B687B613B68BB613B8FBB83FB6BBC
:1018A4003B62B7F84030BB84FB681D4607F1100467
:1018B4000FCC0FC594E8030085E80300F8682C37C3
:1018C400BD46B0BC704780B582B000AF78601420CC
:1018D400FFF77AF83021786800F029F80520FFF73F
:1018E40073F83021786800F022F80120FFF76CF8D3
:1018F4003021786800F01BF80120FFF765F83221E9
:10190400786800F014F82821786800F010F80C21A9
:10191400786800F00CF80121786800F008F80621D6
:10192400786800F004F800BF0837BD4680BD80B574
:1019340084B000AF78600B46FB700023BB737B68F8
:1019440018697B689B8A00221946FFF7F7FA7B68BF
:1019540098687B689B8900221946FFF7EFFAFB78A9
:101964001B09BB730023FB7319E07B681A68FB7BBC
:101974009B00134418687B685A68FB7B5B00134424
:101984001988BA7BFB7B42FA03F3DBB203F0010351
:10199400DBB21A46FFF7D2FAFB7B0133FB73FB7B06
:1019A400032BE2D97B6818697B689B8A012219465C
:1019B400FFF7C4FA0120FFF707F87B6818697B6812
:1019C4009B8A00221946FFF7B9FAFB7803F00F034C
:1019D400BB730023FB7319E07B681A68FB7B9B00D5
:1019E400134418687B685A68FB7B5B0013441988AE
:1019F400BA7BFB7B42FA03F3DBB203F00103DBB2F5
:101A04001A46FFF79BFAFB7B0133FB73FB7B032B2B
:101A1400E2D97B6818697B689B8A01221946FFF723
:101A24008DFA0120FEF7D0FF7B6818697B689B8ADA
:101A340000221946FFF782FA00BF1037BD4680BD69
:101A440080B584B000AF78600B46FB700023BB7395
:101A54007B6818697B689B8A00221946FFF76EFA37
:101A64007B6898687B689B8901221946FFF766FAB0
:101A7400FB781B09BB730023FB7319E07B681A68AE
:101A8400FB7B9B00134418687B685A68FB7B5B00F4
:101A940013441988BA7BFB7B42FA03F3DBB203F0ED
:101AA4000103DBB21A46FFF749FAFB7B0133FB73F0
:101AB400FB7B032BE2D97B6818697B689B8A012234
:101AC4001946FFF73BFA0120FEF77EFF7B68186991
:101AD4007B689B8A00221946FFF730FAFB7803F0F3
:101AE4000F03BB730023FB7319E07B681A68FB7B4D
:101AF4009B00134418687B685A68FB7B5B001344A3
:101B04001988BA7BFB7B42FA03F3DBB203F00103CF
:101B1400DBB21A46FFF712FAFB7B0133FB73FB7B44
:101B2400032BE2D97B6818697B689B8A01221946DA
:101B3400FFF704FA0120FEF747FF7B6818697B680A
:101B44009B8A00221946FFF7F9F900BF1037BD46FA
:101B540080BD90B585B000AF786039600023FB7319
:101B64000AE0FB7B3A6813441B7819467868FFF750
:101B740067FFFB7B0133FB73FC7B3868FEF728FBB4
:101B840003469C42EDD300BF1437BD4690BD000010
:101B940080B584B000AF78600B46FB701346BB7011
:101BA400BB78032B16D801A252F823F0C11B0008FE
:101BB400C71B0008CD1B0008D31B00088023FB7340
:101BC40009E0C023FB7306E09423FB7303E0D423F2
:101BD400FB7300E000BFFA7BFB781344FB73FB7BD1
:101BE40019467868FFF7A3FE00BF1037BD4680BDD5
:101BF40002440346934200D1704703F8011BF9E7FE
:101C040070B50D4D0D4C641BA4100026A64209D1DD
:101C14000B4D0C4C00F018F8641BA4100026A642CF
:101C240005D170BD55F8043B98470136EEE755F8E9
:101C3400043B98470136F2E7A41C0008A41C0008E2
:101C4400A41C0008A81C0008F8B500BFF8BC08BC18
:101C54009E467047F8B500BFF8BC08BC9E46704766
:101C64002E2E2E2E53544D33322D463430315245C0
:101C74002E2E2E2E000000002020202020202A4B73
:101C840045595041442A00000000000000000000B3
:081C9400010203040607080920
:081C9C0078E5FF7F0100000064
:041CA400B90100087A
:041CA800950100089A
:101CAC0000100020004000800004024000040240AC
:101CBC0000040240000402400024F4001000000064
:041CCC000100000013
:040000050800089552
:00000001FF
