:020000040800F2
:1000000000800120650B0008710A0008770A0008CB
:100010007D0A0008830A0008890A00080000000021
:100020000000000000000000000000008F0A00082F
:100030009D0A000800000000AB0A0008B90A000889
:10004000B50B0008B50B0008B50B0008B50B000890
:10005000B50B0008B50B0008B50B0008B50B000880
:10006000B50B0008B50B0008B50B0008B50B000870
:10007000B50B0008B50B0008B50B0008B50B000860
:10008000B50B0008B50B0008B50B00080000000018
:10009000000000000000000000000000B50B000898
:1000A000B50B0008B50B0008B50B0008B50B000830
:1000B000B50B0008B50B0008B50B0008B50B000820
:1000C000B50B0008B50B0008B50B0008B50B000810
:1000D000B50B0008B50B0008B50B000800000000C8
:1000E000C50A0008B50B0008B50B000800000000A9
:1000F000000000000000000000000000B50B000838
:1001000000000000B50B0008B50B0008B50B000897
:1001100000000000000000000000000000000000DF
:10012000B50B0008B50B0008B50B0008B50B0008AF
:10013000B50B0008000000000000000000000000F7
:10014000000000000000000000000000B50B0008E7
:10015000B50B0008B50B0008B50B0008B50B00087F
:10016000B50B0008B50B00080000000000000000FF
:10017000000000000000000000000000000000007F
:1001800000000000B50B00080000000000000000A7
:04019000B50B0008A3
:1001A00010B5054C237833B9044B13B10448AFF3B1
:1001B00000800123237010BD7400002000000000A7
:1001C0005C30000808B5034B1BB103490348AFF38B
:1001D000008008BD00000000780000205C300008AE
:1001E000034613F8012B002AFBD1181A0138704777
:1001F00001F0FF01102A2BDB10F0070F08D010F8D8
:10020000013B013A8B422DD010F0070F42B3F6D1DB
:10021000F0B441EA012141EA014122F007047FF0F4
:1002200000070023F0E80256083C85EA010586EA4B
:10023000010685FA47F5A3FA87F586FA47F6A5FA87
:1002400087F68EB9EED1F0BC01F0FF0102F0070293
:1002500032B110F8013B013A83EA010313B1F8D13E
:100260000020704701387047002D06BF354603381F
:10027000073815F0010F07D1013015F4807F02BF58
:10028000013015F4C03F0130F0BC0138704700BFA9
:1002900053B94AB9002908BF00281CBF4FF0FF31ED
:1002A0004FF0FF3000F070B9ADF1080C6DE904CEED
:1002B00000F006F8DDF804E0DDE9022304B0704741
:1002C0002DE9F047089E0D4604460F46002B4AD103
:1002D0008A42944665D9B2FA82F343B102FA03FC2A
:1002E000C3F120029F4020FA02F217439C404FEADC
:1002F0001C4E1FFA8CF5B7FBFEF1220C0EFB11779A
:1003000042EA074201FB05F090420AD91CEB0202C7
:1003100001F1FF3780F01C81904240F219810239CF
:100320006244121AA4B2B2FBFEF00EFB102244EAA1
:10033000024400FB05F5A5420AD91CEB040400F1B8
:10034000FF3280F00781A54240F204816444023804
:1003500040EA0140641B00211EB1DC400023C6E9D5
:100360000043BDE8F0878B4208D9002E00F0ED80F5
:100370000021C6E900050846BDE8F087B3FA83F11D
:10038000002949D1AB4202D3824200F2F880841A9C
:1003900065EB030201201746002EE2D0C6E90047B4
:1003A000DFE702B9FFDEB2FA82F3002B40F0908063
:1003B0008A1A4FEA1C471FFA8CFE0121B2FBF7F59F
:1003C00007FB1520220C42EA00420EFB05F090428A
:1003D00008D91CEB020205F1FF3802D2904200F26C
:1003E000CB804546121AA4B2B2FBF7F007FB1022ED
:1003F00044EA02440EFB00FEA64508D91CEB0404A7
:1004000000F1FF3202D2A64500F2BB801046A4EBF9
:100410000E0440EA05409FE7C1F120078B4022FA15
:1004200007FC4CEA030C05FA01F420FA07F3FD403F
:100430004FEA1C492343B5FBF9F81FFA8CFE09FB70
:1004400018551C0C44EA054408FB0EF5A54202FAB7
:1004500001F200FA01F00BD91CEB040408F1FF3A99
:1004600080F08880A54240F28580A8F102086444AB
:10047000641B9DB2B4FBF9F309FB134445EA044441
:1004800003FB0EFEA64508D91CEB040403F1FF355F
:100490006CD2A6456AD9023B644443EA0843A3FBF5
:1004A0000295A4EB0E04AC42C846AE4656D353D0D8
:1004B00056B1B0EB080264EB0E0404FA07F7CA4029
:1004C000CC401743C6E9007418460021BDE8F08708
:1004D000C3F1200102FA03FC20FA01F225FA01F12E
:1004E0009D402A434FEA1C471FFA8CFEB1FBF7F0F0
:1004F00007FB1015110C41EA054100FB0EF58D427A
:1005000004FA03F408D91CEB010100F1FF382FD2E3
:100510008D422DD902386144491B92B2B1FBF7F5E7
:1005200007FB151142EA014205FB0EF1914208D981
:100530001CEB020205F1FF3816D2914214D9023D9C
:100540006244521A45EA004138E73146304608E72E
:100550003946E6E61046FBE64845A9D2B9EB020863
:1005600065EB0C0E013BA3E74546EAE72B4694E713
:100570004046D1E7D0467BE7023D624432E7084679
:100580000AE76444023842E7704700BF80B584B090
:1005900000AF3B4600221A605A609A60DA60214B35
:1005A000214A1A601F4B4FF480325A601D4B0022C3
:1005B0009A601C4B00221A611A4B00221A76194BC2
:1005C000002283F82020174B0022DA62154B174ACD
:1005D0009A62144B0022DA60124B0122DA61114B4D
:1005E000002283F830200F4B01225A610D4800F0A1
:1005F00079FB0346002B01D000F00CFA10233B607E
:1006000001237B600023BB603B461946054800F090
:100610002DFD0346002B01D000F0FCF900BF103780
:10062000BD4680BD90000020002001400100000F69
:1006300080B58AB000AF786007F1140300221A6019
:100640005A609A60DA601A617B681B68174A9342A5
:1006500027D100233B61164B5B6C154A43F4807332
:100660005364134B5B6C03F480733B613B69002361
:10067000FB600F4B1B6B0E4A43F0010313630C4BE3
:100680001B6B03F00103FB60FB6803237B61032307
:10069000BB610023FB6107F114031946054801F013
:1006A00015F800BF2837BD4680BD00BF00200140BF
:1006B000003802400000024080B58AB000AF07F168
:1006C000140300221A605A609A60DA601A610023EB
:1006D0003B613C4B1B6B3B4A43F004031363394BB8
:1006E0001B6B03F004033B613B690023FB60354B4C
:1006F0001B6B344A43F080031363324B1B6B03F0D4
:100700008003FB60FB680023BB602E4B1B6B2D4AF4
:1007100043F0010313632B4B1B6B03F00103BB601E
:10072000BB6800237B60274B1B6B264A43F0020308
:100730001363244B1B6B03F002037B607B68002276
:100740002021214801F046F900224FF206011F48FE
:1007500001F040F94FF400537B614FF40413BB6187
:100760000123FB6107F114031946194800F0AEFF9D
:1007700020237B610123BB610023FB6100233B62DB
:1007800007F114031946104800F0A0FF4FF20603CA
:100790007B610123BB610023FB6100233B6207F106
:1007A00014031946094800F091FF00220221282075
:1007B00000F055FF282000F06EFF00BF2837BD462F
:1007C00080BD00BF0038024000000240000402402B
:1007D00000080240B0B58AB004AF00F0EDF9254C36
:1007E000384602230293244B019304230093224BA7
:1007F000224A234901F0D6FD25463C460FCC0FC5C1
:1008000094E8030085E8030000F044F8FFF754FF84
:10081000FFF7BCFE174801F0E8FD0121154801F083
:1008200018FE0221134801F014FE00220021114895
:1008300001F040FF13490F4801F01DFF0122002184
:100840000C4801F037FF10490A4801F014FF02225A
:100850000021084801F02EFF0C49064801F00BFF6B
:1008600003220021034801F025FF0949014801F056
:1008700002FFFEE7D8000020000402400000002034
:1008800008000020743000088C3000089C300008FC
:10089000B030000880B594B000AF07F120033022DB
:1008A0000021184601F056FF07F10C0300221A60E0
:1008B0005A609A60DA601A610023BB60284B1B6C97
:1008C000274A43F080531364254B1B6C03F080537D
:1008D000BB60BB6800237B60224B1B6823F4404352
:1008E000204A43F4004313601E4B1B6803F440434B
:1008F0007B607B6801233B624FF4A0237B62022371
:10090000BB634FF48003FB6304233B6454237B6489
:100910000223BB640723FB6407F12003184601F0A0
:10092000A5F80346002B01D000F074F80F23FB60FC
:1009300002233B6100237B614FF48053BB610023A2
:10094000FB6107F10C030221184601F007FB034687
:10095000002B01D000F05EF800BF5037BD4680BDCF
:10096000003802400070004080B588B000AF0346F8
:10097000FB802021244801F046F8002001F0DAFC39
:10098000F861012001F0D6FCB861102001F0D2FC22
:100990007861022205211D4801F08CFE07F1080351
:1009A000FA691B49184601F0B5FE07F1080319461C
:1009B000164801F060FE02220E21144801F07AFE72
:1009C00007F10803BA691249184601F0A3FE07F1BE
:1009D000080319460D4801F04EFE03220E210B4874
:1009E00001F068FE07F108037A690949184601F029
:1009F00091FE07F108031946044801F03CFE00BFD0
:100A00002037BD4680BD00BF00000240D800002056
:100A1000C430000880B400AF72B600BFFEE700002B
:100A200080B483B000AF00237B60104B5B6C0F4A37
:100A300043F4804353640D4B5B6C03F480437B6051
:100A40007B6800233B60094B1B6C084A43F08053D2
:100A50001364064B1B6C03F080533B603B6800BF84
:100A60000C37BD465DF8047B704700BF003802407C
:100A700080B400AFFEE780B400AFFEE780B400AF03
:100A8000FEE780B400AFFEE780B400AFFEE780B4BD
:100A900000AF00BFBD465DF8047B704780B400AF77
:100AA00000BFBD465DF8047B704780B400AF00BF57
:100AB000BD465DF8047B704780B500AF00F0CEF80E
:100AC00000BF80BD80B500AF4FF4005000F0B6FF0E
:100AD00000BF80BD80B586B000AF7860144A154B6A
:100AE000D31A7B617B693B61134B1B68002B02D1DE
:100AF000114B124A1A60104B1A687B6813443A690A
:100B00009A4207D201F02EFE03460C221A604FF0E3
:100B1000FF3309E0084B1B68FB60074B1A687B68D2
:100B20001344054A1360FB6818461837BD4680BD5C
:100B30000080012000040000F0000020400200209E
:100B400080B400AF064BD3F88830054A43F47003F5
:100B5000C2F8883000BFBD465DF8047B704700BF17
:100B600000ED00E0DFF834D00D480E490E4A0023B6
:100B700002E0D458C4500433C4188C42F9D30B4A51
:100B80000B4C002301E013600432A242FBD3FFF7B9
:100B9000D7FF01F0EDFDFFF71DFE7047008001203B
:100BA00000000020740000202031000874000020A4
:100BB00040020020FEE7000080B500AF0E4B1B682E
:100BC0000D4A43F4007313600B4B1B680A4A43F44D
:100BD00080631360084B1B68074A43F480731360FB
:100BE000032000F031FD002000F008F8FFF718FFA7
:100BF0000023184680BD00BF003C024080B582B093
:100C000000AF7860124B1A68124B1B7819464FF4EC
:100C10007A73B3FBF1F3B2FBF3F3184600F049FD2E
:100C20000346002B01D001230EE07B680F2B0AD86E
:100C3000002279684FF0FF3000F011FD064A7B6812
:100C40001360002300E0012318460837BD4680BD2D
:100C500018000020200000201C00002080B400AFFD
:100C6000064B1B781A46064B1B681344044A136054
:100C700000BFBD465DF8047B704700BF2000002028
:100C8000F400002080B400AF034B1B681846BD463B
:100C90005DF8047B704700BFF400002080B584B08D
:100CA00000AF7860FFF7EEFFB8607B68FB60FB6821
:100CB000B3F1FF3F05D00A4B1B781A46FB6813447B
:100CC000FB6000BFFFF7DEFF0246BB68D31AFA687D
:100CD0009A42F7D800BF00BF1037BD4680BD00BFA5
:100CE0002000002080B584B000AF78600023FB7343
:100CF0007B68002B01D1012333E07B681B6C002B48
:100D000009D17868FFF794FC7B6800225A647B68FD
:100D1000002283F83C207B681B6C03F01003002B3F
:100D200018D17B681B6C23F4885323F0020343F033
:100D300002027B681A64786800F0BAFA7B680022C5
:100D40005A647B681B6C23F0030343F001027B6849
:100D50001A6401E00123FB737B68002283F83C20C6
:100D6000FB7B18461037BD4680BD000080B485B0BF
:100D700000AF78600023BB607B6893F83C30012BA8
:100D800001D1022397E07B68012283F83C207B6835
:100D90001B689B6803F00103012B18D07B681B685C
:100DA0009A687B681B6842F001029A60454B1B6899
:100DB000454AA2FB03239A0C13465B001344BB6015
:100DC00002E0BB68013BBB60BB68002BF9D17B68CC
:100DD0001B689B6803F00103012B5FD17B681B6CD0
:100DE00023F4E06323F0010343F480727B681A6408
:100DF0007B681B685B6803F48063002B07D07B680B
:100E00001B6C23F4405343F480527B681A647B6864
:100E10001B6C03F48053B3F5805F06D17B685B6C79
:100E200023F006027B685A6402E07B6800225A6461
:100E30007B68002283F83C20244BFB607B681B68A6
:100E40006FF022021A60FB685B6803F01F03002B3F
:100E50000FD17B681B689B6803F04053002B29D19E
:100E60007B681B689A687B681B6842F080429A60C6
:100E700020E07B681B68164A93421BD17B681B6885
:100E80009B6803F04053002B14D17B681B689A6861
:100E90007B681B6842F080429A600BE07B681B6CA9
:100EA00043F010027B681A647B685B6C43F00102BC
:100EB0007B685A64002318461437BD465DF8047BEE
:100EC000704700BF1800002083DE1B430023014051
:100ED0000020014080B483B000AF78607B6893F855
:100EE0003C30012B01D1022321E07B68012283F8F1
:100EF0003C207B681B689A687B681B6822F00102B3
:100F00009A607B681B689B6803F00103002B09D182
:100F10007B681B6C23F4885323F0010343F0010228
:100F20007B681A647B68002283F83C200023184603
:100F30000C37BD465DF8047B704780B584B000AFC8
:100F4000786039600023FB607B681B689B6803F452
:100F50008063B3F5806F13D17B681B689B6803F4D3
:100F60008073B3F5807F0BD17B681B6C43F020024C
:100F70007B681A647B68002283F83C20012363E0CD
:100F8000FFF780FEF86021E03B68B3F1FF3F1DD022
:100F90003B68002B07D0FFF775FE0246FB68D31AAB
:100FA0003A689A4212D27B681B681B6803F00203FE
:100FB000022B0BD07B681B6C43F004027B681A6425
:100FC0007B68002283F83C2003233DE07B681B689C
:100FD0001B6803F00203022BD6D17B681B686FF0FD
:100FE00012021A607B681B6C43F400727B681A64FF
:100FF0007B681B689B6803F04053002B23D17B6800
:101000001B7E002B1FD17B681B68DB6A03F4700317
:10101000002B06D07B681B689B6803F48063002B61
:1010200011D17B681B6C23F480727B681A647B6827
:101030001B6C03F48053002B05D17B681B6C43F0C1
:1010400001027B681A64002318461037BD4680BD34
:1010500080B483B000AF78607B681B68DB6C184697
:101060000C37BD465DF8047B7047000080B485B046
:1010700000AF786039600023BB607B6893F83C3038
:10108000012B01D1022305E17B68012283F83C207A
:101090003B681B68092B25D97B681B68D9683B68AE
:1010A0001B689BB21A4613465B0013441E3B072283
:1010B00002FA03F3DA437B681B680A40DA607B6854
:1010C0001B68D9683B689A683B681B689BB21846E6
:1010D00003465B0003441E3B9A407B681B680A433F
:1010E000DA6022E07B681B6819693B681B689BB269
:1010F0001A4613465B001344072202FA03F3DA434D
:101100007B681B680A401A617B681B6819693B6829
:101110009A683B681B689BB2184603465B00034411
:101120009A407B681B680A431A613B685B68062B20
:1011300024D87B681B68596B3B685A6813469B0030
:101140001344053B1F2202FA03F3DA437B681B6852
:101150000A405A637B681B68596B3B681B689BB2EB
:1011600018463B685A6813469B001344053B00FA37
:1011700003F27B681B680A435A634CE03B685B6878
:101180000C2B24D87B681B68196B3B685A68134684
:101190009B001344233B1F2202FA03F3DA437B68CC
:1011A0001B680A401A637B681B68196B3B681B68E5
:1011B0009BB218463B685A6813469B001344233B76
:1011C00000FA03F27B681B680A431A6323E07B681A
:1011D0001B68D96A3B685A6813469B001344413B1D
:1011E0001F2202FA03F3DA437B681B680A40DA62C3
:1011F0007B681B68D96A3B681B689BB218463B68D2
:101200005A6813469B001344413B00FA03F27B6883
:101210001B680A43DA62224BFB607B681B68214A29
:10122000934209D13B681B68122B05D1FB685B68B0
:1012300043F48002FB685A607B681B68194A93423A
:1012400023D13B681B68102B03D03B681B68112B14
:101250001BD1FB685B6843F40002FB685A603B6883
:101260001B68102B11D1104B1B68104AA2FB0323E3
:101270009A0C13469B0013445B00BB6002E0BB6802
:10128000013BBB60BB68002BF9D17B68002283F86F
:101290003C20002318461437BD465DF8047B704798
:1012A00000230140002001401800002083DE1B4382
:1012B00080B485B000AF7860794BFB60FB685B68F9
:1012C00023F44032FB685A60FB685A687B685B68AD
:1012D0001A43FB685A607B681B685A687B681B6806
:1012E00022F480725A607B681B6859687B681B69AE
:1012F0001A027B681B680A435A607B681B685A683D
:101300007B681B6822F040725A607B681B685968D2
:101310007B689A687B681B680A435A607B681B6815
:101320009A687B681B6822F400629A607B681B687D
:1013300099687B68DA687B681B680A439A607B68F7
:101340009B6A584A934222D07B681B689A687B68E4
:101350001B6822F070629A607B681B6899687B68E2
:101360009A6A7B681B680A439A607B681B689A6864
:101370007B681B6822F040529A607B681B68996802
:101380007B68DA6A7B681B680A439A600FE07B68B7
:101390001B689A687B681B6822F070629A607B68A1
:1013A0001B689A687B681B6822F040529A607B68D1
:1013B0001B689A687B681B6822F002029A607B684F
:1013C0001B6899687B681B7E5A007B681B680A4310
:1013D0009A607B6893F82030002B1BD07B681B68D9
:1013E0005A687B681B6842F400625A607B681B681D
:1013F0005A687B681B6822F460425A607B681B68ED
:1014000059687B685B6A013B5A037B681B680A4327
:101410005A6007E07B681B685A687B681B6822F487
:1014200000625A607B681B68DA6A7B681B6822F47A
:101430007002DA627B681B68D96A7B68DB69013BF2
:101440001A057B681B680A43DA627B681B689A6826
:101450007B681B6822F400729A607B681B6899683D
:101460007B6893F830305A027B681B680A439A60A5
:101470007B681B689A687B681B6822F480629A60AC
:101480007B681B6899687B685B699A027B681B684C
:101490000A439A6000BF1437BD465DF8047B70476D
:1014A000002301400100000F80B485B000AF7860D8
:1014B0007B6803F00703FB600C4BDB68BB60BA681A
:1014C0004FF6FF031340BB60FB681A02BB6813436F
:1014D00043F0BF6343F40033BB60044ABB68D3608E
:1014E00000BF1437BD465DF8047B704700ED00E097
:1014F00080B400AF044BDB681B0A03F007031846F7
:10150000BD465DF8047B704700ED00E080B483B019
:1015100000AF0346FB7197F90730002B0BDBFB791B
:1015200003F01F02074997F907305B09012000FA11
:1015300002F241F8232000BF0C37BD465DF8047B62
:10154000704700BF00E100E080B483B000AF034605
:101550003960FB7197F90730002B0ADB3B68DAB280
:101560000C4997F907301201D2B20B4483F80023DB
:101570000AE03B68DAB20849FB7903F00F03043B49
:101580001201D2B20B441A7600BF0C37BD465DF88B
:10159000047B704700E100E000ED00E080B489B01A
:1015A00000AFF860B9607A60FB6803F00703FB6185
:1015B000FB69C3F10703042B28BF0423BB61FB694C
:1015C0000433062B02D9FB69033B00E000237B6157
:1015D0004FF0FF32BB6902FA03F3DA43BB681A40EB
:1015E0007B699A404FF0FF317B6901FA03F3D943DD
:1015F0007B680B40134318462437BD465DF8047BD7
:101600007047000080B582B000AF78607B68013B16
:10161000B3F1807F01D301230FE00A4A7B68013BCD
:1016200053600F214FF0FF30FFF78EFF054B002274
:101630009A60044B07221A60002318460837BD46FB
:1016400080BD00BF10E000E080B582B000AF7860E0
:101650007868FFF729FF00BF0837BD4680BD80B519
:1016600086B000AF0346B9607A60FB7300237B61EC
:10167000FFF73EFF78617A68B9687869FFF78EFFF7
:10168000024697F90F3011461846FFF75DFF00BF7D
:101690001837BD4680BD80B582B000AF0346FB71F0
:1016A00097F907301846FFF731FF00BF0837BD46EE
:1016B00080BD80B582B000AF78607868FFF7A2FF88
:1016C000034618460837BD4680BD000080B489B087
:1016D00000AF7860396000237B6100233B61002309
:1016E000BB610023FB6159E10122FB6902FA03F3AC
:1016F0007B613B681B687A6913403B613A697B698F
:101700009A4240F048813B685B6803F00303012B79
:1017100005D03B685B6803F00303022B30D17B6884
:101720009B68BB61FB695B00032202FA03F3DB43A6
:10173000BA691340BB613B68DA68FB695B0002FA77
:1017400003F3BA691343BB617B68BA699A607B682B
:101750005B68BB610122FB6902FA03F3DB43BA69F0
:101760001340BB613B685B681B0903F00102FB6926
:1017700002FA03F3BA691343BB617B68BA695A6022
:101780003B685B6803F00303032B17D07B68DB68BF
:10179000BB61FB695B00032202FA03F3DB43BA6916
:1017A0001340BB613B689A68FB695B0002FA03F374
:1017B000BA691343BB617B68BA69DA603B685B68EE
:1017C00003F00303022B23D1FB69DA087B6808329C
:1017D00053F82230BB61FB6903F007039B000F2223
:1017E00002FA03F3DB43BA691340BB613B681A6931
:1017F000FB6903F007039B0002FA03F3BA69134382
:10180000BB61FB69DA087B680832B96943F82210CA
:101810007B681B68BB61FB695B00032202FA03F370
:10182000DB43BA691340BB613B685B6803F00302AA
:10183000FB695B0002FA03F3BA691343BB617B687F
:10184000BA691A603B685B6803F44033002B00F010
:10185000A2800023FB60574B5B6C564A43F48043E5
:101860005364544B5B6C03F48043FB60FB68524A47
:10187000FB699B08023352F82330BB61FB6903F01C
:1018800003039B000F2202FA03F3DB43BA69134000
:10189000BB617B68494A934219D07B68484A9342AE
:1018A00013D07B68474A93420DD07B68464A9342E7
:1018B00007D07B68454A934201D1042308E00723FF
:1018C00006E0032304E0022302E0012300E00023FA
:1018D000FA6902F0030292009340BA691343BB61B4
:1018E0003549FB699B080233BA6941F82320384B1C
:1018F0009B68BB613B69DB43BA691340BB613B68D2
:101900005B6803F48013002B03D0BA693B6913436F
:10191000BB612F4ABB6993602D4BDB68BB613B69A0
:10192000DB43BA691340BB613B685B6803F4001397
:10193000002B03D0BA693B691343BB61244ABB69DE
:10194000D360234B5B68BB613B69DB43BA691340DF
:10195000BB613B685B6803F40033002B03D0BA69BA
:101960003B691343BB611A4ABB695360184B1B6840
:10197000BB613B69DB43BA691340BB613B685B6891
:1019800003F48033002B03D0BA693B691343BB6176
:101990000F4ABB691360FB690133FB61FB690F2BC5
:1019A0007FF6A2AE00BF00BF2437BD465DF8047BC2
:1019B000704700BF0038024000380140000002407C
:1019C0000004024000080240000C024000100240E7
:1019D000003C014080B483B000AF78600B467B8050
:1019E00013467B707B78002B03D07A887B689A61E2
:1019F00003E07B881A047B689A6100BF0C37BD4600
:101A00005DF8047B704780B485B000AF78600B460A
:101A10007B807B685B69FB607A88FB6813401A04F3
:101A2000FB68D9437B880B401A437B689A6100BFEF
:101A30001437BD465DF8047B7047000080B582B066
:101A400000AF0346FB80084B5A69FB881340002B0C
:101A500006D0054AFB885361FB881846FEF784FFD1
:101A600000BF0837BD4680BD003C014080B586B050
:101A700000AF78607B68002B01D1012367E27B68AF
:101A80001B6803F00103002B75D0884B9B6803F0A3
:101A90000C03042B0CD0854B9B6803F00C03082B24
:101AA00012D1824B5B6803F48003B3F5800F0BD136
:101AB0007E4B1B6803F40033002B5BD07B685B68B4
:101AC000002B57D1012342E27B685B68B3F5803F6E
:101AD00006D1764B1B68754A43F4803313601DE0D2
:101AE0007B685B68B3F5A02F0CD1704B1B686F4A05
:101AF00043F4802313606D4B1B686C4A43F48033BE
:101B000013600BE0694B1B68684A23F48033136051
:101B1000664B1B68654A23F4802313607B685B680F
:101B2000002B13D0FFF7AEF8386108E0FFF7AAF8F2
:101B300002463B69D31A642B01D9032307E25B4BAE
:101B40001B6803F40033002BF0D014E0FFF79AF881
:101B5000386108E0FFF796F802463B69D31A642B18
:101B600001D90323F3E1514B1B6803F40033002B2D
:101B7000F0D100E000BF7B681B6803F00203002B7C
:101B800063D04A4B9B6803F00C03002B0BD0474BF0
:101B90009B6803F00C03082B1CD1444B5B6803F4D7
:101BA0008003002B16D1414B1B6803F00203002B6E
:101BB00005D07B68DB68012B01D00123C7E13B4BDB
:101BC0001B6823F0F8027B681B69DB00374913436D
:101BD0000B603AE07B68DB68002B20D0344B01229D
:101BE0001A60FFF74FF8386108E0FFF74BF802463C
:101BF0003B69D31A022B01D90323A8E12B4B1B68A5
:101C000003F00203002BF0D0284B1B6823F0F802EE
:101C10007B681B69DB00254913430B6015E0244BEF
:101C200000221A60FFF72EF8386108E0FFF72AF863
:101C300002463B69D31A022B01D9032387E11B4BD0
:101C40001B6803F00203002BF0D17B681B6803F0D4
:101C50000803002B36D07B685B69002B16D0154B30
:101C600001221A60FFF70EF8386108E0FFF70AF862
:101C700002463B69D31A022B01D9032367E10B4BC0
:101C80005B6F03F00203002BF0D01BE0094B002236
:101C90001A60FEF7F7FF38610EE0FEF7F3FF024629
:101CA0003B69D31A022B07D9032350E100380240C5
:101CB00000004742800E4742884B5B6F03F00203EF
:101CC000002BEAD17B681B6803F00403002B00F0B3
:101CD00097800023FB75814B1B6C03F08053002B16
:101CE0000FD10023BB607D4B1B6C7C4A43F08053BB
:101CF00013647A4B1B6C03F08053BB60BB680123F9
:101D0000FB75774B1B6803F48073002B18D1744B61
:101D10001B68734A43F480731360FEF7B3FF3861A6
:101D200008E0FEF7AFFF02463B69D31A022B01D948
:101D300003230CE16A4B1B6803F48073002BF0D083
:101D40007B689B68012B06D1644B1B6F634A43F091
:101D5000010313671CE07B689B68052B0CD15F4B6C
:101D60001B6F5E4A43F0040313675C4B1B6F5B4AB7
:101D700043F0010313670BE0584B1B6F574A23F0E6
:101D800001031367554B1B6F544A23F00403136779
:101D90007B689B68002B15D0FEF774FF38610AE062
:101DA000FEF770FF02463B69D31A41F28832934234
:101DB00001D90323CBE0494B1B6F03F00203002B37
:101DC000EED014E0FEF75EFF38610AE0FEF75AFF3E
:101DD00002463B69D31A41F28832934201D9032368
:101DE000B5E03E4B1B6F03F00203002BEED1FB7DF1
:101DF000012B05D1394B1B6C384A23F080531364F7
:101E00007B689B69002B00F0A180344B9B6803F03A
:101E10000C03082B5CD07B689B69022B41D1314BB2
:101E200000221A60FEF72EFF386108E0FEF72AFF55
:101E300002463B69D31A022B01D9032387E0274BC3
:101E40001B6803F00073002BF0D17B68DA697B68B4
:101E50001B6A1A437B685B6A9B011A437B689B6A17
:101E60005B08013B1B041A437B68DB6A1B061B49AA
:101E700013434B601B4B01221A60FEF703FF3861CE
:101E800008E0FEF7FFFE02463B69D31A022B01D998
:101E900003235CE0114B1B6803F00073002BF0D0B0
:101EA00054E0104B00221A60FEF7ECFE386108E0A7
:101EB000FEF7E8FE02463B69D31A022B01D9032341
:101EC00045E0064B1B6803F00073002BF0D13DE0AA
:101ED0007B689B69012B07D1012338E00038024061
:101EE00000700040600047421B4B5B68FB607B68F2
:101EF0009B69012B28D0FB6803F480027B68DB69B7
:101F00009A4221D1FB6803F03F027B681B6A9A4228
:101F10001AD1FA6847F6C07313407A68526A920180
:101F2000934211D1FB6803F440327B689B6A5B08E3
:101F3000013B1B049A4207D1FB6803F070627B6887
:101F4000DB6A1B069A4201D0012300E000231846F9
:101F50001837BD4680BD00BF0038024080B584B050
:101F600000AF786039607B68002B01D10123CCE0A1
:101F7000684B1B6803F007033A689A420CD9654B1B
:101F80003A68D2B21A70634B1B6803F007033A68D1
:101F90009A4201D00123B8E07B681B6803F002037A
:101FA000002B20D07B681B6803F00403002B05D0B6
:101FB000594B9B68584A43F4E05393607B681B6815
:101FC00003F00803002B05D0534B9B68524A43F49F
:101FD00060439360504B9B6823F0F0027B689B68E2
:101FE0004D4913438B607B681B6803F00103002B92
:101FF00044D07B685B68012B07D1474B1B6803F417
:102000000033002B19D101237FE07B685B68022B32
:1020100003D07B685B68032B07D13F4B1B6803F041
:102020000073002B09D101236FE03B4B1B6803F0C9
:102030000203002B01D1012367E0374B9B6823F09B
:1020400003027B685B68344913438B60FEF71AFE1A
:10205000F8600AE0FEF716FE0246FB68D31A41F26A
:102060008832934201D903234FE02B4B9B6803F046
:102070000C027B685B689B009A42EBD1254B1B6886
:1020800003F007033A689A420CD2224B3A68D2B264
:102090001A70204B1B6803F007033A689A4201D07C
:1020A000012332E07B681B6803F00403002B08D097
:1020B000194B9B6823F4E0527B68DB681649134395
:1020C0008B607B681B6803F00803002B09D0124B60
:1020D0009B6823F460427B681B69DB000E49134355
:1020E0008B6000F021F802460B4B9B681B0903F044
:1020F0000F030A49CB5C22FA03F3094A1360094B28
:102100001B681846FEF77AFD002318461037BD46B7
:1021100080BD00BF003C024000380240CC300008C7
:10212000180000201C0000202DE9B04F94B000AF33
:1021300000237B640023FB6400233B640023BB6417
:10214000794B9B6803F00C03082B0DD0082B00F291
:10215000E180002B02D0042B03D0DBE0734BBB6487
:10216000DBE0734BBB64D8E06F4B5B6803F03F036D
:102170007B646D4B5B6803F48003002B63D06A4B78
:102180005B689B090022BB63FA63BB6BC3F3080364
:102190003B6300237B63D7E90C4522462B464FF077
:1021A00000004FF00001590141EAD261500102469E
:1021B0000B462146511A3961294663EB01037B61C5
:1021C0004FF000024FF00003D7E904AB59468B01F2
:1021D000514643EA916351468A015146B2EB0108E8
:1021E000594663EB01094FF000024FF000034FEA3C
:1021F000C90343EA58734FEAC802904699462346FA
:1022000018EB0303BB602B4649EB0303FB604FF065
:1022100000024FF00003D7E9024529464B02214650
:1022200043EAD15321464A02104619467B6C0022EC
:10223000BB62FA62D7E90A23FEF72AF802460B4688
:102240001346FB6458E0384B5B689B090022184634
:102250001146C0F308033B6200237B62D7E908897B
:1022600042464B464FF000004FF00001590141EA51
:10227000D261500102460B464146B2EB010A494683
:1022800063EB010B4FF000024FF000034FEA8B139A
:1022900043EA9A634FEA8A12B2EB0A0463EB0B0536
:1022A0004FF000024FF00003EB0043EA5473E200EA
:1022B00014461D464346E3183B604B4645EB03037B
:1022C0007B604FF000024FF00003D7E9004529463C
:1022D0008B02214643EA915321468A021046194651
:1022E0007B6C0022BB61FA61D7E90623FDF7D0FFC2
:1022F00002460B461346FB640B4B5B681B0C03F05A
:10230000030301335B003B64FA6C3B6CB2FBF3F3F9
:10231000BB6402E0054BBB6400BFBB6C1846503782
:10232000BD46BDE8B08F00BF003802400024F40075
:1023300000127A0080B588B000AF78600023FB619E
:1023400007F10C0300221A605A609A60DA607B6819
:10235000FB6001233B6102237B6107F10C031946FB
:102360000F48FEF783FE0346002B01D0FEF752FB19
:102370000B48FEF7FBFC4FF47A710948FEF7DDFDD0
:102380000346002B03D10648FEF762FEF8610448BD
:10239000FEF7A0FDFB6918462037BD4680BD00BF93
:1023A00090000020B0B48BB000AFF860B9607A60E4
:1023B0003B60BB683B617B687B613B68BB613B8F7B
:1023C000BB83FB6B3B62B7F84030BB84FB681D46A8
:1023D00007F110040FCC0FC594E8030085E8030053
:1023E000F8682C37BD46B0BC704780B582B000AFEE
:1023F00078601420FEF752FC3021786800F029F84C
:102400000520FEF74BFC3021786800F022F801200F
:10241000FEF744FC3021786800F01BF80120FEF73D
:102420003DFC3221786800F014F82821786800F02B
:1024300010F80C21786800F00CF80121786800F0A1
:1024400008F80621786800F004F800BF0837BD4698
:1024500080BD80B584B000AF78600B46FB70002370
:10246000BB737B6818697B689B8A00221946FFF75B
:10247000B1FA7B6898687B689B8900221946FFF750
:10248000A9FAFB781B09BB730023FB7319E07B6877
:102490001A68FB7B9B00134418687B685A68FB7BB7
:1024A0005B0013441988BA7BFB7B42FA03F3DBB26F
:1024B00003F00103DBB21A46FFF78CFAFB7B013312
:1024C000FB73FB7B032BE2D97B6818697B689B8AD3
:1024D00001221946FFF77EFA0120FEF7DFFB7B6839
:1024E00018697B689B8A00221946FFF773FAFB780C
:1024F00003F00F03BB730023FB7319E07B681A68BA
:10250000FB7B9B00134418687B685A68FB7B5B006D
:1025100013441988BA7BFB7B42FA03F3DBB203F066
:102520000103DBB21A46FFF755FAFB7B0133FB735D
:10253000FB7B032BE2D97B6818697B689B8A0122AD
:102540001946FFF747FA0120FEF7A8FB7B681869D8
:102550007B689B8A00221946FFF73CFA00BF1037C0
:10256000BD4680BD80B584B000AF78600B46FB707F
:102570000023BB737B6818697B689B8A002219461D
:10258000FFF728FA7B6898687B689B8901221946C7
:10259000FFF720FAFB781B09BB730023FB7319E0DC
:1025A0007B681A68FB7B9B00134418687B685A6839
:1025B000FB7B5B0013441988BA7BFB7B42FA03F375
:1025C000DBB203F00103DBB21A46FFF703FAFB7B31
:1025D0000133FB73FB7B032BE2D97B6818697B68B3
:1025E0009B8A01221946FFF7F5F90120FEF756FBF9
:1025F0007B6818697B689B8A00221946FFF7EAF915
:10260000FB7803F00F03BB730023FB7319E07B68B7
:102610001A68FB7B9B00134418687B685A68FB7B35
:102620005B0013441988BA7BFB7B42FA03F3DBB2ED
:1026300003F00103DBB21A46FFF7CCF9FB7B013351
:10264000FB73FB7B032BE2D97B6818697B689B8A51
:1026500001221946FFF7BEF90120FEF71FFB7B6838
:1026600018697B689B8A00221946FFF7B3F900BFFF
:102670001037BD4680BD90B585B000AF7860396039
:102680000023FB730AE0FB7B3A6813441B7819466E
:102690007868FFF767FFFB7B0133FB73FC7B3868CF
:1026A000FDF79EFD03469C42EDD300BF1437BD46A7
:1026B00090BD000080B584B000AF78600B46FB7021
:1026C0001346BB70BB78032B16D801A252F823F037
:1026D000E1260008E7260008ED260008F32600089A
:1026E0008023FB7309E0C023FB7306E09423FB7394
:1026F00003E0D423FB7300E000BFFA7BFB781344B4
:10270000FB73FB7B19467868FFF7A3FE00BF103709
:10271000BD4680BD0EB400B59CB01DAB02900690C6
:102720006FF00041094807910491094953F8042BBF
:1027300005910068019302A900F092F9029B002222
:102740001A701CB05DF804EB03B0704770000020F5
:102750000802FFFF02440346934200D1704703F88A
:10276000011BF9E7014B1868704700BF700000209B
:1027700070B50D4D0D4C641BA4100026A64209D166
:102780000B4D0C4C00F06AFC641BA4100026A64202
:1027900005D170BD55F8043B98470136EEE755F872
:1027A000043B98470136F2E7183100081831000859
:1027B000183100081C3100087047704737B50029F0
:1027C00044D051F8043C0190002BA1F10404B8BF9F
:1027D000E41800F0DFF81E4A0198136833B963600B
:1027E000146003B0BDE8304000F0DAB8A34208D965
:1027F000256861198B4201BF19685B68491921601E
:10280000EDE71A465B680BB1A342FAD91168551877
:10281000A5420BD1246821445418A3421160E0D191
:102820001C685B6853600C441460DAE702D90C231F
:102830000360D6E7256861198B4204BF19685B689D
:10284000636004BF491921605460CAE703B030BD1A
:102850003802002070B50E4E0C463168054611B99D
:1028600000F0A6FB30602146284600F0A1FB431C87
:102870000AD0C41C24F00304A04207D0211A284621
:1028800000F096FB013001D14FF0FF34204670BDBF
:102890003C0200202DE9F843CD1C25F00305083546
:1028A0000C2D38BF0C25002D074601DBA94205D9A8
:1028B0000C233B6000263046BDE8F883DFF8D0806B
:1028C00000F068F8D8F800301C465CBB2946384652
:1028D000FFF7C0FF431C044655D1D8F800402646F8
:1028E000002E45D1002C48D023683146384604EBF1
:1028F000030900F05DFB81453FD121686D1A29462F
:102900003846FFF7A7FF013037D023682B442360F8
:10291000D8F80030002B38D05A68A2422BD10022C0
:102920005A600FE02268521B1FD40B2A17D9611975
:10293000A342256018BF5960636808BFC8F800103B
:1029400062514B60384604F10B0600F029F826F07E
:102950000706231DF21AAED09B1BA350ABE7A34280
:102960006268DDD1C8F80020ECE723466468ACE774
:1029700034467668B4E71346CCE70C233B60384610
:1029800000F00EF897E72560DCE75B60FFDE00BF34
:10299000380200200148FFF70FBF00BF34020020BB
:1029A0000148FFF70ABF00BF340200202DE9F047BD
:1029B0008E681F46BE420B6882460C4690462CD855
:1029C0008A8912F4906F26D06569096905EB45057F
:1029D000A3EB010905EBD5757B1C4B446D109D42A3
:1029E00038BF1D46530527D52946FFF753FF064636
:1029F00060B321694A4600F0EBFAA38923F490639F
:102A000043F08003A381266165614E44A5EB09056F
:102A10002660A5603E46BE4200D93E46206832464A
:102A2000414600F0ABFAA3689B1BA36023683344C4
:102A300023600020BDE8F0872A4600F0D7FA06465A
:102A40000028E0D121695046FFF7B8FE0C23CAF8F0
:102A50000030A38943F04003A3814FF0FF30E9E742
:102A60002DE9F04F98468B891B069DB007460D4611
:102A700014460ED50B6963B94021FFF70BFF2860A0
:102A8000286120B90C233B604FF0FF30D0E0402399
:102A90006B610023099320238DF82930CDF80C8039
:102AA0003023DFF8A4818DF82A304FF00109234646
:102AB0009A4613F8012B0AB1252AF9D1BAEB040B77
:102AC0000BD05B46224629463846FFF76FFF0130A0
:102AD00000F0A980099A5A4409929AF80030002B14
:102AE00000F0A18000234FF0FF32CDE905230AF169
:102AF000010A049307938DF853301A935446052224
:102B000014F8011B5048FDF773FB049AD8B9D0069E
:102B100044BF20238DF85330110744BF2B238DF879
:102B200053309AF800302A2B15D0079A54460020CB
:102B30004FF00A0C214611F8013B303B092B4DD9CF
:102B4000B0B1079214E0A0EB080309FA03F31343B2
:102B50000493A246D2E7039B191D1B680391002B27
:102B6000BBBF5B4242F0020207930793B8BF0492D7
:102B700023782E2B0CD163782A2B34D1039B1A1D7A
:102B80001B680392002BB8BF4FF0FF33023405934C
:102B9000DFF8C4A0217803225046FDF729FB38B1A5
:102BA000049BA0EB0A0040228240134301340493AB
:102BB00014F8011B25488DF828100622FDF718FB94
:102BC000002838D0224B1BBB039B073323F007039D
:102BD00008330393099B3344099368E70CFB0232E3
:102BE0000C460120A6E700230134059319464FF057
:102BF0000A0C204610F8012B303A092A03D9002B81
:102C0000C6D00591C4E70CFB012104460123F0E77F
:102C100003AB00932A460F4B04A93846AFF300805C
:102C2000421C0646D6D1AB895B063FF52DAF09980D
:102C30001DB0BDE8F08F03AB00932A46054B04A9F5
:102C4000384600F079F8EBE7DC300008E6300008A1
:102C500000000000AD290008E23000082DE9F0472F
:102C6000164699468A680B69DDF820809342B8BF02
:102C70001346336091F8432007460C460AB10133EE
:102C800033602368990642BF336802333360256896
:102C900015F0060506D104F1190AE36832689B1A9B
:102CA000AB4226DC94F84320131E226818BF012390
:102CB00092062BD404F1430249463846C0470130FE
:102CC0001ED02368226903F00603042B02BFE568C7
:102CD0003368ED1AA3680CBF25EAE5750025934219
:102CE000C4BF9B1AED1800261A34B5421AD1002031
:102CF00008E00123524649463846C047013003D117
:102D00004FF0FF30BDE8F0870135C6E7E1185A1CE7
:102D1000302081F84300224494F8451082F8431093
:102D20000233C7E70123224649463846C0470130EF
:102D3000E6D00136D9E700002DE9FF470F7E0C9D54
:102D4000782F914680460C469A4601F1430207D8F7
:102D5000622F0AD8002F00F0D480582F00F0C080D6
:102D600004F1420584F842703AE0A7F16303152BA1
:102D7000F6D801A151F823F0D12D0008E52D000867
:102D8000612D0008612D0008612D0008612D0008EB
:102D9000E52D0008612D0008612D0008612D000857
:102DA000612D0008E92E0008112E0008A32E00084E
:102DB000612D0008612D00080B2F0008612D00080F
:102DC000112E0008612D0008612D0008AB2E0008AF
:102DD0002B681A1D1B682A6004F1420584F84230F2
:102DE00001239FE020682B68070603F10401296096
:102DF00001D51E6803E04606FBD5B3F90060002E3E
:102E000003DA2D23764284F843305A480A2312E02D
:102E10002B682068191D2960050601D51E6802E08F
:102E20004106FBD51E8853486F2F0CBF08230A2389
:102E3000002184F843106568A560002DA2BF2168B9
:102E400021F0040121600EB9002D4BD01546B6FBD0
:102E5000F3F103FB1167C75D05F8017D3746BB42FF
:102E60000E46F4D9082B0BD12368DE0708D5236959
:102E700061689942DEBF302305F8013C05F1FF355A
:102E8000521B2261CDF800A04B4603AA21464046C2
:102E9000FFF7E4FE01304AD14FF0FF3004B0BDE847
:102EA000F087236843F0200323603348782784F8B1
:102EB0004570236829681F0651F8046B02D45F0629
:102EC00048BFB6B2DF0748BF43F02003296048BFC0
:102ED00023601EB9236823F0200323601023A7E793
:102EE0002448E4E71546BDE72B6826686169181D8C
:102EF000286035061B6801D5196002E07006FBD515
:102F00001980002323611546BCE72B681A1D2A602F
:102F10001D68626800212846FDF76AF908B1401B68
:102F2000606063682361002384F84330AAE7236963
:102F30002A4649464046D0470130ADD023689B071A
:102F400013D4E068039B9842B8BF1846A6E7012354
:102F5000324649464046D04701309DD00135E368AE
:102F600003995B1AAB42F2DCEBE7002504F119068A
:102F7000F5E700BFED300008FE300008884210B5CC
:102F800001EB020402D98442234607D8431EA14222
:102F900008D011F8012B03F8012FF8E7024401468D
:102FA0008A4200D110BD13F8014D02F8014DF7E738
:102FB00038B5064D0023044608462B60FDF78AFD10
:102FC000431C02D12B6803B1236038BD30020020BE
:102FD0000A44914200F1FF3300D1704710B511F857
:102FE000014B03F8014F9142F9D110BD2DE9F04199
:102FF000804614460E4621B9BDE8F0411146FFF760
:1030000049BC2AB9FFF7DAFB25462846BDE8F0811E
:1030100000F01BF88442074602D8B4EB500F12D8D8
:1030200021464046FFF736FC05460028EDD0BC425D
:103030002246314628BF3A46FFF7CAFF314640468E
:10304000FFF7BCFBE1E73546DFE751F8043C181F0A
:10305000002BBCBF0B58C01870470000F8B500BF6C
:10306000F8BC08BC9E467047F8B500BFF8BC08BC69
:043070009E467047C1
:103074002E2E2E2E53544D33322D4634303152459C
:103084002E2E2E2E00000000202020204558414DD9
:10309400504C452041444300202056313D787878F7
:1030A40078202056323D78787878000020205633F6
:1030B4003D78787878202056543D787878780000E8
:1030C4002530346C640000000000000000000000A3
:1030D4000102030406070809232D302B2000686C25
:1030E4004C00656667454647003031323334353627
:1030F4003738394142434445460030313233343560
:0C3104003637383961626364656600008C
:08311000B0D1FF7F01000000B7
:04311800C5010008E5
:04311C00A101000805
:103120000010002000400080000402400004024023
:1031300000040240000402400024F40010000000DB
:103140000100000000000000F800002060010020E5
:10315000C801002000000000000000000000000086
:10316000000000000000000000000000000000005F
:10317000000000000000000000000000000000004F
:10318000000000000000000000000000000000003F
:0431900024000020F7
:0400000508000B657F
:00000001FF
